:020000040800F2
:1000000060BA0020A53E0008C91E0008CB1E0008EB
:10001000E51E0008E71E0008E91E000800000000B9
:10002000000000000000000000000000EB1E0008BF
:10003000ED1E000800000000EF1E0008F11E000881
:10004000BF3E0008BF3E0008BF3E0008BF3E00089C
:10005000BF3E0008BF3E0008BF3E0008BF3E00088C
:10006000BF3E0008BF3E0008BF3E0008BF3E00087C
:10007000BF3E0008BF3E0008511F0008BF3E0008F9
:10008000BF3E0008BF3E0008BF3E0008BF3E00085C
:10009000BF3E0008BF3E0008BF3E0008BF3E00084C
:1000A000BF3E0008BF3E0008BF3E0008BF3E00083C
:1000B000BF3E0008BF3E000891130008BF3E000885
:1000C000BF3E0008BF3E0008BF3E0008BF3E00081C
:1000D000BF3E000817120008810F0008EF1000084B
:1000E000A31F0008BF3E0008BF3E0008BF3E000837
:1000F000BF3E0008BF3E0008BF3E0008BF3E0008EC
:10010000BF3E0008BF3E0008BF3E0008BF3E0008DB
:10011000BF3E0008BF3E0008BF3E0008BF3E0008CB
:10012000BF3E0008BF3E0008BF3E0008BF3E0008BB
:10013000DFF80CD004F0C2FD00480047BB1E0008E9
:1001400060BA002010B54FF40061484802F0B5FDD8
:1001500047490020C87610BD08B50121042002F0EF
:1001600044FF4FF40060ADF8000010208DF803004C
:1001700003208DF8020069463C4802F02EFDFFF78F
:10018000E1FF08BD40213B4802F095BD4FF480419E
:10019000384802F092BD38B50121082002F025FF51
:1001A0004FF48040ADF8000014208DF80300314D6D
:1001B00003248DF802406946284602F00EFDFFF741
:1001C000E5FF4020ADF8000010208DF803008DF809
:1001D00002406946284602F000FDFFF7D3FF38BD14
:1001E00038B50121042002F000FF8020ADF80000A6
:1001F00010208DF8030003201C4C8DF80200694686
:10020000204602F0EAFC8021204602F054FDFFF770
:10021000C2FFFFF7A1FF38BD90FBF1F201FB120016
:1002200010B500280DD1114C8021204602F039FD77
:10023000C0F10100C2B22046BDE81040802102F0AA
:100240003EBD10BD4FF480410A4802F034BD40214C
:10025000084802F032BD10B54FF40061034802F0C7
:100260002AFD03490120C87610BD000000080140A6
:100270006C000020000C014098480068704710B5E1
:1002800003460022104603E010CB521C2044D2B299
:100290008A42F9D310BD30B5914D8DB00D2269461B
:1002A000284601F0BDFD8F4C9DF80500617988421C
:1002B00025D120799DF80410884220D1207D9DF819
:1002C000141088421BD10A99A06A04F0EBFA16D1E7
:1002D000A0680299884212D10399E06804F0E2FA1A
:1002E0000DD120690499884209D10B99E06A04F084
:1002F000D9FA04D17CA001F08DFA0DB030BD0C21EB
:100300007848FFF7BCFF206302E0642000F0E4FFC0
:100310000D227449284601F052FD0028F5D00D2227
:100320006946284601F07CFD0C216846FFF7A7FFCF
:100330000C90E2E72DE9F047A4B00D220AA9684825
:1003400001F06EFD0D2217A96C4801F069FD6420D3
:1003500000F0C2FF9DF82D00624C4FF0000A4FF0F4
:10036000010901284AD066A001F054FA84F80590EA
:10037000042121716549C4F80090A1624FF07A51BF
:10038000C4E90B1A4FF40051A1604FF07E51E160B7
:10039000C821216184F81490FFF77DFF61795CA08A
:1003A00001F038FAE06A04F04DFA07468846E06842
:1003B00004F048FA05460E46A06A04F043FACDE977
:1003C00008780A4621690495CDE90561A168CDE95F
:1003D00000020291227D21794F4801F01BFA84F836
:1003E000199084F816A084F817A084F818A084F84F
:1003F0001AA084F81CA024B0BDE8F0870C210AA83C
:10040000FFF73DFF16998142C8D144A001F002FADE
:100410009DF82D0060719DF82C0020710A982060D5
:100420001498A0621598E062169820630C98A0605A
:100430000D98E0600E9820619DF83C0020759DF8B5
:100440004300E076012804D00028A7D1FFF77AFE08
:10045000A4E7FFF700FFA1E722480122002142762E
:100460008175C1750176817601774171042303712D
:10047000264B836202604FF07A53C0E90B3151037F
:1004800081604FF07E51C160C821016102757047E3
:1004900010B58EB00C211348FFF7F1FE1149174C2F
:1004A000086302E0642000F017FF0D220D4920468A
:1004B00001F085FC0028F5D00D226946204601F0A8
:1004C000AFFC0C216846FFF7DAFE0C99814202D19D
:1004D00014A001F09FF90EB010BD00000000002034
:1004E00000F800086C000020CAFDBEDDCFE0CDACF6
:1004F000CEDED0E8B1A3B4E60A00000000FF000899
:10050000B5DAD2BBB4CEBFAABBFA0A009A99993E1B
:10051000BFAABBFA20256400F45A0008BEF9D5FD35
:10052000B3A30A00B1B8B7DDB4E6B4A2C7F8D0B43B
:10053000C8EBB3C9B9A60A00F0B5BDB01446DDE9F1
:1005400042622A258DF8005002F11205ADF80150E3
:100550004FF0DD37CDF80370CDF80770CDF80B40C4
:10056000CDF80F308DF813008DF8141022B13146FC
:100570000DF1150003F058FDBDF801406946641DFA
:100580002246FE4803F050FDBDF801200321FB4840
:1005900000F06DFEF9498DF8F100214401F8020DDB
:1005A00023204870A1B2F54801F09BF83DB0F0BDA2
:1005B000F0B5BDB01446DDE942622A258DF8005041
:1005C00002F11205ADF801504FF0DD37CDF80370A0
:1005D000CDF80770CDF80B40CDF80F308DF8130033
:1005E0008DF8141022B131460DF1150003F01CFDF9
:1005F000BDF80140E148641D22466946C83803F051
:1006000013FDDE48BDF801200321C83800F02FFE9D
:10061000DA498DF8F100C839214401F8020D232090
:100620004870D648A1B2C83800F027FFD44900204E
:100630004876BBE72DE9FF4F0646C9B00D46084690
:1006400005F002FA8346002405E0305D03F0E6FC85
:100650000BF80400641CAC42F7DB0B225946C9A01E
:1006600003F00DFD002833D00B225946C8A003F03B
:1006700006FD00282ED008225946C8A003F0FFFC32
:1006800060B307225946C8A003F0F9FCC84FBC4C20
:100690000AAE4FF001080DF580790DF58C7A4FF018
:1006A000EE3508B307225946C2A003F0E8FC002843
:1006B0007DD00C225946C1A003F0E1FC002877D080
:1006C0000C225946C1A003F0DAFC002871D0F1E1F8
:1006D000C2A077E0642000F0FFFDEBE1C1A001F0D3
:1006E00099F8FFF7D8FDE5E10DF1080C4B465246AD
:1006F0003FA947A88CE80F003EA93CA8CDE900011E
:100700003DAB41AAB9A1584603F0C8FCBE4A3E9988
:10071000914256DB082854D13F98B0F17E5F50DB00
:100720009DF8F42022719DF8F0202275A16247996E
:10073000C4E90210469820614098E06284F8058080
:1007400087F80480B1A001F065F8E06A04F07AF857
:1007500007468A46E06804F075F880468946A06A34
:1007600004F070F8CDE9087A0A462169CDF81080C6
:10077000CDE90591A168CDE900020291227D2179A0
:10078000A54801F047F8C8210AA803F066FCE06A12
:1007900004F058F880468946E06804F053F80746AC
:1007A0008A46A06A04F04EF802460B4602E00CE0CE
:1007B00066E17BE1CDE9088920690497CDE905A0D0
:1007C000A7E096A001F026F874E14C98082802D121
:1007D000569806284AD0C8210AA803F03EFCE06AD1
:1007E00004F030F807468846E06804F02BF88246AB
:1007F0008946A06A04F026F8CDE908780246206907
:10080000CDF810A0CDE90590A0680092CDE90110C7
:10081000237D227984A10AA804F042FC0AA803F0EF
:1008200027FC80B2CDE900602B462A46062108202D
:10083000FFF7BEFEE06A04F005F807468846E06868
:1008400004F000F805460E46A06A03F0FBFFCDE970
:10085000087822690495CDE90562A2688DE8070051
:10086000227D21796C4800F0D5FF23E13CA9CDF829
:100870001490009147AB3EA8CDE901033FAACDE912
:10088000032A3DAB41AA59A1584603F007FC207941
:100890009DF8F41088421BD1207D9DF8F01088420D
:1008A00016D1A06A3E9903F0FDFF11D1A0684799C7
:1008B00088420DD1E0683F9903F0F4FF08D1206928
:1008C0004699884204D1E06A409903F0EBFF37D0A3
:1008D00053A000F09FFF87F80480322000F0FCFC5A
:1008E000C8210AA803F0B9FBE06A03F0ABFF814618
:1008F0008A46E06803F0A6FF07468846A06A03F030
:10090000A1FFCDE9089A024620690497CDE9058048
:100910000B46A0680092CDE90130237D22794AA1DF
:100920000AA804F0BDFB0AA803F0A2FB80B2CDE93F
:1009300000602B462A4601210820FFF7FDFDB9E0A3
:1009400049A000F067FF409803F07CFF0646884608
:100950003F9803F077FF04460D463E9803F072FF80
:10096000CDE908680A4646990494CDE905514799AE
:10097000CDE9000202919DF8F02079E0C622002026
:100980006C000020726573746172745F6F73630032
:10099000726573746F72655F6F7363007361766500
:1009A00063636667000000007365746363666700D5
:1009B0000400002067657463636667007365747282
:1009C000656C61795F6F7363000000006765747226
:1009D000656C61795F6F736300000000B8B4CEBBD3
:1009E0000D0A0000B1A3B4E60D0A000025377320FC
:1009F0002564202564202566202564202566202581
:100A00006420256600000000CDCCCC3D504320730F
:100A100065740D0A00000000F45A0008B2CECAFD49
:100A2000B4EDCEF30D0A000067657463636667205A
:100A30002564202564202566202564202566202540
:100A40006420256600000000736574636366672098
:100A50002564202564202566202564202566202520
:100A60006420256600000000D5FDC8B70D0A00000F
:100A70009DF8F410FD4800F0CDFE0020387119E01B
:100A80006B4641AAFAA1584603F008FB022811D18F
:100A90009DF80000012801D018B104E0FFF7DBFB4E
:100AA00001E0FFF74FFBE17EF3A001E0E17EF6A05D
:100AB00000F0B0FE584604F09FFF4DB0BDE8F08F47
:100AC0002DE9F043F44DF54CC7B0297F04F5C96812
:100AD00004F21479012903D0287E012808D00FE000
:100AE000C822414601A803F09FFA94F8100706E0D7
:100AF000C822494601A803F097FA94F8DC07C7B268
:100B00009DF8170001A9072803D19DF818000328B4
:100B100020D0BDF805001531123882B2164633A830
:100B200003F082FA9DF8180000909DF817303A46BD
:100B3000314633A8FFF77EFD287F012838D0287E74
:100B4000012804D1C822494601A803F06DFA47B034
:100B5000BDE8F083DDF819004490DDF81D004590F4
:100B6000BDF82100ADF818019DF823008DF81A0199
:100B7000CB48DDF81121D0F801109142DCD1817908
:100B80009DF816219142D7D141799DF815219142C6
:100B9000D2D1D0F80700DDF817118842CCD1C14876
:100BA00001780329C8D102210170FFF765FBC3E773
:100BB0000020C4F81007C821404603F04EFAC6E7EB
:100BC0002DE9F04FB44DBDB0687E01287ED1287F5D
:100BD0000026012802D0287E012809D1FFF770FFE6
:100BE000287F012800D12E77287E012800D12E767B
:100BF000AC4CDFF8AC92DFF8B0A26178A078884600
:100C0000A9F16009AAF64C5788424ED021780229F2
:100C100001D039B132E0401CA07026700B21A048F1
:100C200003F01BFAA078404528D0182800D3A670FE
:100C3000A078C846C0EB4011C1EB002159F8202034
:100C40000AEB8101384603F0EFF99548817938F8CD
:100C5000210081B2384600F010FC91486E763038A1
:100C6000D7F815100163D7F819104163B7F81D10B4
:100C70000187F97F80F83A1001202070FFF7FCFA15
:100C8000A168401AB0F5C87F0FDB207803280CD18B
:100C90002670E068401CE060032806DBE6606078B0
:100CA000A0700B217E4803F0D8F9E97DDFF8EC81D4
:100CB0004FF4487B012965D0A87D01287ED000280B
:100CC0005ED100295CD1A87E012800E058E057D110
:100CD000A0786178884253D120790DF1280A4FF02D
:100CE000EE3B70B3C821504603F0B7F9E86A03F051
:100CF000A9FD80468946E86803F0A4FD04460F4636
:100D0000A86A03F09FFD0346CDE908892869049489
:100D1000CDE90570A868CDE9003102902B7D2A79D4
:100D2000AFF2DC210AA804F0BBF90AA803F0A0F98D
:100D300080B2CDE900A05B465A4601210820FFF7AA
:100D4000FBFBC8210AA803F088F9686A03F07AFD62
:100D5000EA7E009202460B4654A10AA804F0A0F9CC
:100D60000AA803F085F980B2CDE900A05B465A4697
:100D700002210820FFF71CFCAE7650A000F04AFDCF
:100D80003DB09BE66078182800D366706078D8F88C
:100D90004426C0EB401149F82020C1EB0020574603
:100DA0000AEB80004FF4617103F057F96078C0EBF3
:100DB000401159F82020C1EB002000E01FE042491B
:100DC00007EB8000894603F02FF96078C0EB4011F3
:100DD000C1EB002107EB8101401C51F8152F009257
:100DE0004A6801920A89ADF80820897A8DF80A10BC
:100DF0006070EE75C8F844665946484617E0A0781A
:100E000061788842BCD1D8F82023C8F8CC2B23497C
:100E1000384603F009F9B8F8200381B2384600F0EB
:100E20002CFB6E76AE751D48C8F8206359463DB060
:100E3000BDE8F04F03F011B92DE9F041234C002635
:100E400022462378511D151DB2F80320042B78D2B9
:100E5000DFE803F0023E40562A2872D101232370B6
:100E60005054B4F80300401C69E000003C5B0008EB
:100E70002531327320256400BCCCB5E7C6F731209C
:100E800025640D0A00000000BCCCB5E7C6F732208F
:100E900025640D0A000000006C000020960D002063
:100EA00050780020040000208E23002067657476AF
:100EB0006F6C2025662025640D0A0000414C4CB75C
:100EC000A2CBCD200D0A0000BA100020A000002007
:100ED0000223C4E7535D032504F8015B03EB002301
:100EE000505460885B1D401C608098B240F24C41B9
:100EF0002080884225D9891DE34803F0AEF820E020
:100F00005054B4F80300401C80B2A4F80300B4F8B5
:100F10000120101A002814DC0321601D521F00F06C
:100F2000A6F90146D84AB4F80100D21C825C405DA3
:100F3000232802D1914200D1012600202070A4F87C
:100F400003003046BDE8F08170B5D04D0021284641
:100F500001F0EDFACD4C6C3C206FA0F24C404242C7
:100F6000CB4800F53D61C0F8202303F05DF840F266
:100F70004C4020672846BDE87040012101F0D7BAF7
:100F80002DE9F047C34E40F2244A5146304602F064
:100F900059FF002825D0FFF7D7FF0024BC4D0127BB
:100FA000DFF8F48240F252490AE0285DFFF744FF7F
:100FB00028B188F816704946B34803F04EF8641C0F
:100FC000D5F82003A042F0DC1021304602F030FFBB
:100FD0005146304602F055FF3046BDE8F04702F07A
:100FE000CABEBDE8F0872DE9F041AC4C0026224690
:100FF0002378511D151D0127B2F80320042B56D26A
:10100000DFE803F0020C0F252A2850D12770505436
:10101000B4F80300401CA4F8030048E00223237046
:10102000F5E7535D032504F8015B03EB00235054FF
:1010300060885B1D401C608098B240F24C4120806B
:10104000884234D9891D954803F007F82FE05054A1
:10105000B4F80300401C80B2A4F80300B4F80120E7
:10106000101A002823DC0321601D521F00F0FFF836
:101070008A4AB4F80110D21C8A5C495D00252329F4
:1010800012D1904210D1B4F803208548642A09D2C5
:10109000C7707F48611DC0F8102700F5C96002F0D5
:1010A000C3FF00E0C57001262570A4F80350304648
:1010B00048E770B5754D00213C3D284601F037FAF0
:1010C000724C6C3C606B7749A0F24C4042427048D5
:1010D000C0F8442600F5497002F0A6FF40F24C40EB
:1010E00060632846BDE87040012101F020BA2DE977
:1010F000F05F6D4F40F2244B5946384602F0A2FE95
:10110000002832D0FFF7D5FF0024DFF894810126B4
:10111000DFF884915E4D40F2524A15E0281990F8AC
:101120002403FFF760FF70B198F80300012801D095
:1011300018B104E089F81C6001E089F81760514695
:10114000564802F08AFF641CD5F84406A042E5DC4C
:101150001021384602F06CFE5946384602F091FEE6
:101160003846BDE8F05F02F006BEBDE8F09F2DE90D
:10117000F0414E4C002622462378511D151DB2F831
:101180000320042B45D2DFE803F0020B0D232A28AD
:101190003FD1012323705054B4F80300401C36E0C3
:1011A0000223F7E7535D032504F8015B03EB0023FB
:1011B000505460885B1D401C608098B240F24C41E6
:1011C0002080884225D9891D384802F046FF20E05A
:1011D0005054B4F80300401C80B2A4F80300B4F8E3
:1011E0000120101A002814DC0321601D521F00F09A
:1011F0003EF801462D4AB4F80100D21C825C405DE5
:10120000232802D1914200D1012600202070A4F8A9
:101210000300304696E670B5254C40F22555294628
:10122000204602F00FFE002820D02946204602F07A
:1012300028FE204602F09FFDC0B2FFF798FF00286D
:1012400014D01A491248B1F80120C0F8DC2700F286
:101250001470491D02F0E8FE0F4901200876BDE830
:10126000704040F25241114802F0F7BE70BD30B5F7
:1012700004460020034603E0CD18655D68405B1C12
:101280009342F9DB30BD0000A00000206C0002405A
:10129000960D0020004400406C000020F204002065
:1012A00004000020B21D0020004800404409002036
:1012B0000038014010B54FF4407000F0B1FE00F06E
:1012C0007CF8FEF78DFF00F01CFB00F08AFCBDE807
:1012D000104000F0F4BC0000594908604FF0E020D5
:1012E000026942F00102026108680028FCD17047DF
:1012F00053480168002902D00168491E0160704707
:101300003EB50121042001F079FE4E4C204601F04B
:10131000BBFE6320ADF8040041F61F400021ADF88C
:101320000000ADF80610ADF802108DF808106946FF
:10133000204601F041FF0121204602F00DFC012270
:101340001146204602F0F6F90021204602F0DDF9B0
:101350003EBD08B51E208DF8000001208DF801006B
:1013600000218DF802108DF80300684600F05DFE44
:1013700008BD10B5FEF780FF00F099FBBDE81040F6
:101380000121304802F0C1B900212E4802F0BDB958
:1013900010B52C4C0121204602F0E1FB002809D0B9
:1013A0000121204602F0E7FBFEF766FFBDE8104092
:1013B00000F07DBB10BD01F0F8BC70B522484FF4C1
:1013C0007A710068B0FBF1F0401EB0F1807F25D249
:1013D0004FF0E024606166170F21304600F01FF8DF
:1013E0000020A061072525610146304600F017F86E
:1013F000FFF786FFFFF7ADFF40F2712445F255502D
:1014000001F0CAFC284601F0CAFC204601F0CAFCE3
:1014100001F0CBFCBDE8704001F0CCBCFEE7090751
:10142000090E002804DB00F1E02080F8001470476A
:1014300000F00F0000F1E02080F8141D704700005C
:101440001400002000080040500000202DE9F04169
:101450000E4607460025FE4C0BE021882046795DAC
:1014600002F085FC4021204602F0E2FC0028F9D081
:101470006D1CB542F1DBBDE8F081F64A10B5916410
:101480001065F4480121443001F051F80122802117
:10149000EF4802F038FC10BD08B50E208DF80000B2
:1014A00001208DF8010000218DF802108DF8030055
:1014B000684600F0BAFD08BD10B501218CB00846A1
:1014C00001F08AFDE34C4434204600F099FFE048E7
:1014D0000021001D0090102002908020CDE9041012
:1014E0008001CDE90810069107910A9169462046CE
:1014F00000F0F3FF01220221204601F023F801222F
:101500008021D34802F0FFFB0CB010BD08B54FF4AA
:10151000A06000F085FD25208DF8000001208DF8E9
:10152000010000218DF802108DF80300684600F0DC
:101530007CFD08BD1FB5C64C00900020ADF804002E
:10154000ADF80600ADF80800ADF80C000C20ADF8C1
:101550000A006946204602F041FB012240F2255173
:10156000204602F0B8FB0121204602F0AAFB1FBD75
:1015700038B50121042001F038FD0121880301F074
:1015800034FD4FF40070ADF8000003208DF8020028
:101590001820B14C8DF803006946204601F01DFB70
:1015A0002015ADF8000004208DF8030069462046A0
:1015B00001F013FB38BD2DE9F0410E46074600252A
:1015C000A64C0BE021882046795D02F0D0FB40213B
:1015D000204602F02DFC0028F9D06D1CB542F1DB4D
:1015E00049E710B501218CB0084601F0F5FC994C93
:1015F0006C34204600F004FF98480021001D009044
:101600009748CDE9010140F24C40CDE9030180202B
:10161000CDE905012020CDE907100002CDE909013F
:101620006946204600F059FF0121204600F07FFF67
:101630006AE708B54FF4A06000F0F2FC26208DF8B0
:10164000000002208DF801008DF8020001208DF8C5
:101650000300684600F0E9FC08BD1FB57F4C009010
:101660000020ADF80400ADF80600ADF80800ADF8B4
:101670000C000C20ADF80A006946204602F0AEFAD4
:10168000012240F22441204602F025FB01224021A4
:10169000204602F038FB0121204602F012FB1FBD5C
:1016A00038B50121082001F0A0FC0121480401F017
:1016B000A5FC0424ADF8004003208DF8020018209A
:1016C000654D8DF803006946284601F086FA08202A
:1016D000ADF800008DF803406946284601F07DFA18
:1016E00038BD2DE9F0410E46074600255D4C0BE064
:1016F00021882046795D02F03AFB4021204602F025
:1017000097FB0028F9D06D1CB542F1DBB3E610B5AC
:1017100001218CB0084601F05FFC4E486C3000F0AF
:101720006FFE504840F24C41001D00904E48019021
:101730000020CDE902018021CDE90401202106909D
:10174000CDE907010902CDE90910424C6946303460
:10175000204600F0C2FE0121204600F0E8FED3E65C
:1017600008B54FF4A06000F05BFC27208DF8000066
:1017700002208DF8010001208DF802008DF8030091
:10178000684600F052FC08BD1FB5364C00900020A2
:10179000ADF80400ADF80600ADF80800ADF80C0097
:1017A0000C20ADF80A006946204602F017FA012223
:1017B00040F22441204602F08EFA012240212046C8
:1017C00002F0A1FA0121204602F07BFA1FBD38B5D4
:1017D0000121082001F009FC0121880401F00EFC20
:1017E0004FF48060ADF8000003208DF8020018204F
:1017F0001E4C8DF803006946204601F0EEF9E01416
:10180000ADF8000004208DF803006946204601F081
:10181000E4F938BD0FB44FF4857170B5C4B000243D
:1018200049AB6846489A03F04FFC114D6E460BE0F9
:10183000315D641CE4B2284602F099FA4021284642
:1018400002F0F6FA0028F9D0684602F011FC11E027
:101850000038014000000240000801400044004000
:101860006619002000480040B21D0020000C014015
:10187000004C0040A042DBD844B070BC5DF814FBC3
:101880001FB5334C00900020ADF80400ADF8060001
:10189000ADF80800ADF80C000820ADF80A00694664
:1018A000204602F09BF9012240F22551204602F029
:1018B00012FA0121204602F004FA1FBD38B50121B9
:1018C000102001F092FB0121C80401F097FB4FF4B6
:1018D0008060ADF8000003208DF8020018201D4C38
:1018E0008DF803006946204601F077F9E014ADF861
:1018F000000004208DF803006946204601F06DF9D0
:1019000038BD10B5FFF7DAFF4FF4E1342046FFF79A
:10191000B7FFFFF75CFFFFF7FAFE4FF47A30FFF7EF
:1019200033FFFFF71DFFFFF7BBFEFFF75AFE204610
:10193000FFF793FEFFF77DFEFFF71AFE0648FFF75D
:10194000F9FDFFF7B9FDFFF7A7FDBDE81040DDE5A4
:10195000004C004000100140801A060008B501212B
:10196000082001F042FB4FF48050ADF80000482001
:101970008DF803006946A94801F02FF908BD1CB590
:101980000121084601F031FB0C21012001F0DDF9B5
:101990004FF48050009000208DF804000C208DF84A
:1019A000050001208DF80600684600F01BFE1CBDF6
:1019B00008B50121082001F018FB4FF40050ADF8E4
:1019C000000048208DF803006946944801F005F9AD
:1019D00008BD1CB50121084601F007FB0D210120BF
:1019E00001F0B3F94FF40050009000208DF804008E
:1019F0000C208DF8050001208DF80600684600F0E7
:101A0000F1FD1CBD08B528208DF8000009208DF8D7
:101A1000010000208DF8020001208DF803006846C7
:101A200000F003FB08BD1CB50D21012001F08DF96C
:101A30004FF40050009000208DF804000C208DF829
:101A4000050001208DF80600684600F0CBFD1CBDA6
:101A50001CB50D21012001F078F94FF400500090E1
:101A600000208DF804000C218DF805108DF806007B
:101A7000684600F0B7FD1CBD694800210170417047
:101A80008170C1704160816041F2883181814FF481
:101A90009671C18164210182704710B5032000F066
:101AA000ACF8002802D15E490320487010BD2DE932
:101AB000F05F5B4C0546214687B22278C878A1F1D9
:101AC000040A4FF0000801264978C1464FF0030B85
:101AD000062A61D2DFE802F003152A464D520320A0
:101AE00000F08BF820B984F801B04EA0FFF792FE09
:101AF0006078002850D0656084F802902670BDE8B8
:101B0000F09F6068A289281A904205D9AAF800704F
:101B100084F80390052017E0084600F06EF80128CD
:101B20003AD1A560A67002202070E8E7084600F0D0
:101B300064F858B9A068E189281A884206D2AAF840
:101B4000007084F80390042020702AE0A068E189E6
:101B5000281A884220D9AAF8007084F8039084F8E3
:101B600000B0CCE732A0FFF755FEE6704FF0010859
:101B700012E0B0B930A0FFF74DFE0CE088B930A0FC
:101B8000FFF748FE8021304801F097F8FEF75FFB31
:101B90002E4964200862E6702078052801D00428C8
:101BA0000AD1BAF80000218A281A884204D960783C
:101BB00000F023F8012802D0B8F1000F9FD0FFF702
:101BC0005BFFFFF730FFFFF7DFFBBDE8F05F20A012
:101BD000FFF720BE124900200978002900D101201A
:101BE000704710B5FFF7BAFEFFF7C9FEFFF7E0FE3A
:101BF000FFF7EFFEBDE8104004E710B5012401280F
:101C000009D0022807D0032805D16103034801F059
:101C10003EF800B90024204610BD0000000C014031
:101C20001C000020B0B4BCFCB0B4CFC20D0A000050
:101C3000B6CCB0B40D0A0000CBABBBF70D0A000068
:101C4000B3A4B0B40D0A0000000801406C000020ED
:101C5000B0B4BCFCCBC9BFAA0D0A000010B586B059
:101C60004FF4004001F057F94C4C204600F030FA98
:101C700000214FF46020CDE902018DF8041001200D
:101C800000918DF805108DF810006946204600F08F
:101C90003BFA0121204600F05FFA204600F079FA75
:101CA000204600F07BFA0028FAD1204600F07DFAA9
:101CB000204600F07FFA0028FAD106B010BD08B522
:101CC00001214FF4027001F090F90220ADF80000FC
:101CD00000208DF8030003208DF80200694630488B
:101CE00000F07BFFBDE80840B8E770B52B4D044617
:101CF0000121284600F030FA072301222146284618
:101D000000F082FA0121284600F05BFA2C460221FD
:101D1000204600F04DFB0028F9D0204600F0B8FA2C
:101D200005460021204600F017FA284670BD10B580
:101D30000920FFF7DAFF02F080FD6FF00B0102F0DF
:101D40008FFC02F07FFD4FF06632164B02F094FCE0
:101D5000154A164B02F002FD02F087FD144C0022DA
:101D600001231449A04209DC4C88641CA4B24C80B5
:101D70008A80CA80052C06D30B7009E04A808C88C3
:101D8000641C8C80CA808A88052A01D302220A70CA
:101D9000094A50629376087810BD00000024014083
:101DA000000C014066660A407B14AE47E17AC43FEE
:101DB00000006040300000206C0000207047F8B543
:101DC0000546042016460F4600248DF8000000F05A
:101DD00088FC352000F093FE284600F0BDFC8DF80D
:101DE00000009DF8000004280AD015E057F82410E0
:101DF000284600F050FD8DF80000641CA4B22D1D93
:101E0000B44203D29DF800000428EFD000F075FC26
:101E10009DF80000042801D00020F8BD0120F8BD85
:101E200010B5002304E010C841F823405B1C9BB2AE
:101E30009342F8D310BD10B586B000F0CBFF4FF43D
:101E40008034204600F0DFFF01F00AF828B31020AC
:101E500000F03EFC022000F02BFC002001F038F8DE
:101E6000002001F043F8A01101F039F8601001F0F2
:101E700052F84FF4E011204601F013F8012001F070
:101E800018F8392000F0D7FF0028FAD0022001F01E
:101E900013F801F018F80828FBD1684601F05CF847
:101EA00006B010BD10B502F05FF8FFF7C4FFFFF7F2
:101EB00001FABDE81040FEF73DBAFFF7F3FFFFF768
:101EC0007AFAFEF77DFEFAE77047BFF34F8F474877
:101ED0000168474A01F4E06111430160BFF34F8F8D
:101EE00000BFFDE7FEE7FEE7FEE77047704770477B
:101EF00010B5404C2068401C2060FFF7F9F92068BD
:101F000040F6B831B0FBF1F201FB120008B9FFF75F
:101F10000EFF20686421B0FBF1F201FB12000028E3
:101F200015D13549086A48B1401E08620FD133A067
:101F3000FFF770FCBDE81040FEF724B9324908688D
:101F4000421C0A60BDE810400A21FEF765B910BDC9
:101F500010B54FF40054204600F001FB00281FD0BC
:101F60002A490878012805D103200870FEF784F972
:101F7000274908602049012048760021254800F0C3
:101F8000D6FA204600F0F9FA234C4021204601F011
:101F900056FF20460022BDE81040802101F0B3BE6C
:101FA00010BD70B54FF40054204600F06BFB1B4D84
:101FB00058B12146284600F06AFE18B9FFF748FDDF
:101FC000FFF7D7F9204600F06BFB4FF48054204612
:101FD00000F058FB002808D02146284600F057FEA4
:101FE0002046BDE8704000F05BBB70BD0CED00E02A
:101FF0000400FA05000000206C000020B8B4CEBB3D
:10200000CDEAB1CF0D0A0000380000200400002006
:102010000C0000204400024000380140000C014048
:102020002849084328490860704770B50F23C478D1
:1020300001780122F4B1244C2468457804F4E0646A
:10204000C4F5E064240AC4F10406E3408478B54092
:102050001C402C4301F1E021230181F80034007879
:1020600000F01F018A404009800000F1E020C0F824
:10207000002170BD01F01F0082404809800000F17E
:10208000E020C0F8802170BD104A114001430E4885
:10209000001F016070470C4A121D0029116801D011
:1020A000014300E08143116070474FF0E0210428B4
:1020B000086903D020F004000861704740F0040074
:1020C000FAE700000000FA050CED00E080FFFF1FBA
:1020D000C54910B5884202D1012144150AE0C3491F
:1020E000884202D10121041504E0C14988420AD185
:1020F0000121CC03204600F08AFF2046BDE81040B5
:10210000002100F084BF10BD10B54268B94B0C79B6
:102110001A400B6842EA0422134343608368B64ABC
:102120001340D1E9024222434C7943EA44031A4363
:102130008260C26A097C22F47002491EC9B242EA76
:102140000151C16210BD00210160017141718160C6
:10215000C1600121017470470029816802D041F0FB
:10216000010101E021F001018160704700298168CF
:1021700002D041F4807101E021F4807181607047E8
:10218000002A4268C9B201D00A4300E08A43426093
:102190007047816841F00801816070470146002066
:1021A0008968090700D501207047816841F0040162
:1021B00081607047014600208968490700D50120E9
:1021C00070470029816802D041F4A00101E021F4A8
:1021D000A00181607047014600208968490200D54E
:1021E000012070474268491E22F4604242EA4131B0
:1021F000416070470029416802D041F4006101E06C
:1022000021F400614160704770B5072409290AD99B
:10221000C568A1F10A0606EB4606B440A543B340E3
:102220001D43C56007E0056901EB4106B440A543C5
:10223000B3401D4305611F23072A09D2446B521E78
:1022400002EB820293409C4391400C43446370BD77
:102250000D2A09D2046BD21F02EB820293409C43E9
:1022600091400C43046370BDC46A0D3A02EB8202D4
:1022700093409C4391400C43C46270BD0029816827
:1022800002D041F4801101E021F480118160704797
:10229000C06C80B2704754484C30006870470029C9
:1022A000416802D041F4806101E021F48061416025
:1022B00070470029416802D041F4805101E021F4C7
:1022C000805141607047826822F4E0420A43826094
:1022D00070470029816802D041F4004101E021F4F7
:1022E0000041816070470029816802D041F40211E9
:1022F00001E021F4021181607047014600208968E5
:10230000890200D50120704770B5072409290AD930
:10231000C568A1F10A0606EB4606B440A543B340E2
:102320001D43C56007E0056901EB4106B440A543C4
:10233000B3401D430561836BC3F30154121B921C10
:1023400002EB82041F22A2409343A1400B4383630C
:1023500070BD826B491E22F4401242EA0151816332
:10236000704708B508440090026008BD08B50844ED
:1023700028300090006880B208BD42681F4B1A40A8
:102380000A4342607047416282627047426822F0AD
:102390001F020A4342607047134908310028086849
:1023A00002D040F4000001E020F400000860704713
:1023B0000246002012680A4200D001207047C9433B
:1023C0000160704710B50246002054680B0AC9B27C
:1023D0000C401168194202D0002C00D0012010BD21
:1023E0006FEA11210160704700240140002801407C
:1023F000003C0140FFFEF0FFFDF7F1FFFFFD3FFF56
:1024000001684FF6FE7211400160002101604160D9
:102410008160C1606A496A4A0839904203D14868BC
:1024200040F00F0006E0664A1432904204D148683A
:1024300040F0F00048607047614A2832904203D172
:10244000486840F47060F5E75D4A3C32904203D141
:10245000486840F47040EDE7594A5032904203D149
:10246000486840F47020E5E7554A6432904203D151
:10247000486840F47000DDE7514A7832904203D159
:10248000486840F07060D5E74E4A111F904203D172
:10249000086840F00F0006E04A4A1432904204D126
:1024A000086840F0F00008607047464A28329042C1
:1024B00003D1086840F47060F5E7424A3C3290422C
:1024C00003D1086840F47040EDE73E4A5032904234
:1024D000EAD1086840F47020E5E730B5036847F6B4
:1024E000F07293430C6A8A682243D1E904452C4375
:1024F00022438C692243CC6922434C6A22438C6A72
:1025000022431A430260CA6842600A6882604968CE
:10251000C16030BD0021016041608160C160016126
:1025200041618161C161016241628162704700293C
:10253000016802D041F0010102E04FF6FE72114045
:1025400001607047002A026801D00A4300E08A4314
:102550000260704741607047406880B27047014632
:102560000020CA0002D5174A083A01E0144A083A86
:1025700012680A4200D001207047C10003D51149FA
:10258000091F086070470E490839486070470146C6
:102590000020CA0002D50B4A083A01E0084A083A6E
:1025A00012680A4200D001207047C10003D50549D6
:1025B000091F0860704702490839486070470000E9
:1025C0000800024008040240374900200860091D45
:1025D0000860091D0860091D08603349334814313B
:1025E0000860704730B530498379026853B30B688F
:1025F00093430B600A1D13680468A34313600279B8
:102600000A441368046823431360274A0832136896
:102610000468A3431360131D1C680568AC431C6069
:102620004479102C05D021440A68006802430A60EE
:1026300030BD1168046821431160196800680143C6
:10264000196030BD0079084401689143016030BDD4
:102650000021016001710C224271817170471249A1
:1026600010310A6802430A60704701460E4A002092
:10267000143212680A4200D0012070470A4914310E
:1026800008607047084A014600201268064B0A405D
:1026900014331B680B4202D0002A00D0012070477F
:1026A000014914310860704700040140FFFF0F002A
:1026B000FC4A116801F03801014311607047F94983
:1026C0000A6822F008020A600A6802430A6070473A
:1026D000F4490A6822F010020A600A6802430A609C
:1026E0007047F048F0494160F04941607047ED485B
:1026F000ED494160ED4941607047EA48016941F0A8
:10270000800101617047E748016941F08001016182
:102710007047E4490420CA68D20701D001207047FD
:10272000CA68520701D502207047C968C906FBD59F
:102730000320704700B50346FFF7EBFF03E000BF3F
:10274000FFF7E7FF5B1E012803D0002B00D1052017
:1027500000BD002BF4D1FAE770B505464FF43026E2
:102760003046FFF7E7FF042811D1CE4C206940F036
:10277000020020616561206940F040002061304620
:10278000FFF7D8FF216941F6FD721140216170BD4C
:1027900030B54FF430252846FFF7CCFF042810D180
:1027A000C04C206940F004002061206940F04000E6
:1027B00020612846FFF7BEFF216941F6FB721140F8
:1027C000216130BD00B50346FFF7A3FF03E000BF62
:1027D000FFF79FFF5B1E012803D0002B00D10520CF
:1027E00000BD002BF4D1FAE730B54FF43025284670
:1027F000FFF7E8FF042810D1AA4C206940F004003C
:102800002061206940F0400020612846FFF7DAFF90
:10281000216941F6FB721140216130BDA1490020C0
:10282000C969890700D50120704770B5A525FFF754
:10283000F5FF00B100254FF430263046FFF77AFF50
:10284000042827D1974C9848A0609848A060206938
:1028500040F020002061206940F0400020613046B7
:10286000FFF768FF41F6EF7604280ED1206941F6A4
:10287000DF7108402061206940F0100020618C4821
:1028800005804FF40050FFF755FF052802D021695D
:102890003140216170BDF8B5064600204FF4005C60
:1028A00000900D466046FFF745FF042816D17D4C89
:1028B000206940F00100206135806046FFF73AFF53
:1028C00041F6FE77042806D1B61C280C009630800D
:1028D0006046FFF72FFF216939402161F8BDF0B54F
:1028E00006464FF400570D463846FFF723FF0428ED
:1028F0000CD16C4C206940F00100206135803846D5
:10290000FFF718FF2169BA1E11402161F0BDF0B533
:1029100006464FF400570D463846FFF70BFF0428D4
:1029200013D1604C6048A0606048A060206940F00E
:102930001000206135803846FFF7FCFE052804D0E2
:10294000216941F6EF7211402161F0BD2DE9F0419E
:10295000C04300F0FF0CC0F30727C0F30746050E85
:102960004FF400584046FFF7E5FE042837D14D4CA0
:102970004D49A1604D49A160216941F010012161DB
:10298000BCF1FF0F08D04A480830A0F800C040460C
:10299000FFF7D0FE04281BD1FF2F07D044480A3090
:1029A00007804046FFF7C6FE042811D1FF2E07D04E
:1029B0003F480C3006804046FFF7BCFE042807D194
:1029C000FF2D07D03A480E3005804046FFF7B2FE93
:1029D000052804D0216941F6EF7211402161BDE85C
:1029E000F08170B505464FF430263046FFF7A2FE61
:1029F000042818D12B4C2C48A0602C48A0602069DA
:102A000040F020002061206940F040002061304605
:102A1000FFF790FE41F6DF71042805D0052802D0AB
:102A200022690A40226170BD206908402061206946
:102A300040F0100020611E480DB1002100E0A521EA
:102A400001803046FFF776FE0528ECD0216941F67B
:102A5000EF721140216170BDF0B5124C074612486B
:102A600016460D46A0601148A0604FF4005C604619
:102A7000FFF760FE042814D1206940F010002061A7
:102A800035430B493D43891C45F0F80008806046FA
:102A9000FFF750FE052804D0216941F6EF7211407E
:102AA0002161F0BD0020024023016745AB89EFCDD5
:102AB00000F8FF1F1C48C069800870471A48006A68
:102AC0007047194900200968890600D50120704720
:102AD000154A0029116901D0014300E081431161C9
:102AE000704701460020104A012903D0D2680A42EB
:102AF00003D17047D169C907FBD0012070470A494B
:102B0000C860704708490420CA68D20701D0012074
:102B10007047CA68520701D502207047C968C906C4
:102B2000FBD503207047000000200240914910B5FA
:102B3000884206D10121042000F069FA0021042016
:102B40003BE08D49884206D10121082000F05FFA60
:102B50000021082031E08949884206D10121102056
:102B600000F055FA0021102027E08549884206D15F
:102B70000121202000F04BFA002120201DE0814996
:102B8000884206D10121402000F041FA0021402076
:102B900013E07D49884206D10121802000F037FAF8
:102BA0000021802009E0794988420AD18415012159
:102BB000204600F02CFA00212046BDE8104000F02D
:102BC00026BA10BD10B50121084600F020FA0021F8
:102BD000BDE81040012000F01ABAF0B5CA7800250F
:102BE00002F00F03D20601D58A7813430A784FF01A
:102BF0000F0E12F0FF0F4FF001021DD0D0F8004071
:102C00000F8802FA05F63740B74211D14FEA850C1A
:102C10000EFA0CF724EA070703FA0CF43C43CF78CA
:102C2000282F02D0482F02D002E0466100E0066162
:102C30006D1C082DE4D304600C88FF2C1ED9446859
:102C40005FF0000606F1080702FA07F50F882F402B
:102C5000AF420FD14FEA860C0EFA0CF7BC4303FAD1
:102C60000CF73C43CF78282F00D14561CF78482F0F
:102C700000D10561761C082EE4D34460F0BD4FF608
:102C8000FF710180022181700421C17070470246EA
:102C9000002092680A4200D001207047806880B20C
:102CA000704702460020D2680A4200D001207047D7
:102CB000C06880B2704701617047416170470AB1D6
:102CC0000161704741617047C160704741F48032D3
:102CD0008261816182618169806970472C4B10B586
:102CE0001A684FF68074224042EA001008431860C8
:102CF00010BD2849C8617047F0B5254C002801DA9D
:102D0000E36900E06368420D120185B2C0F3015728
:102D10009540C0F30346032F05D0C2020AD5032213
:102D2000B240934307E023F07062636823F070635E
:102D3000636002E0AB4343F0706201B12A430028B4
:102D400001DAE261F0BD6260F0BD10B58A0721F0E2
:102D500003040F49130F21440F228C689A409443B7
:102D60008C608A68984002438A6010BD0949C1F8A6
:102D7000DC00704700080140000C014000100140D9
:102D80000014014000180140001C014000200140D7
:102D900000000140000020420D49086070470C49C6
:102DA000486070470A498860704709494AF6AA2076
:102DB0000860704706494CF6CC4008607047044AEA
:102DC00001460020D2680A4200D00120704700006E
:102DD00000300040A448016841F0010101604168F1
:102DE000A24A114041600168A14A11400160016896
:102DF00021F480210160416821F4FE0141604FF41B
:102E00001F018160704798490A6822F480320A6085
:102E10000A6822F480220A60B0F5803F07D0B0F53E
:102E2000802F03D1086840F4A0200860704708682C
:102E300040F48030F9E70246002053098A49012B0B
:102E40000AD0022B0AD0496A02F01F0201239340E4
:102E50000B4200D0012070470968F5E7096AF3E7E3
:102E600018B500204FF4A06400903120FFF7E3FF75
:102E70000099491C0091A14201D00028F5D03120D1
:102E8000FFF7D9FF002800D0012018BD76490A6855
:102E900022F0F80242EAC0000860704775490860F5
:102EA0007047714A5368084323F47C1318435060F9
:102EB00070477049086670476B4A516821F00301FA
:102EC0000143516070476848406800F00C0070474B
:102ED000654A516821F0F001014351607047624A30
:102EE000516821F4E0610143516070475E494A68CE
:102EF00022F4605242EAC000486070475A4A0029F2
:102F0000517A01D0014300E0814351727047594921
:102F1000C1F8D8007047544A516821F44041014338
:102F2000516070475049002281F8202081F820200C
:102F3000012802D0042802D1052081F82000704722
:102F40004D490860704748490A6A02430A6270475F
:102F5000494944390860704730B543494A6812F01E
:102F60000C03464A03D0042B01D0082B21D0026069
:102F70004A680F23424C03EA1212A35C0268DA404B
:102F800042604B68072505EA1323E35C22FA03F34A
:102F900083604B6805EAD323E35CDA40C26049688A
:102FA000032303EA9131231F595CB2FBF1F1016164
:102FB00030BD4A684B6802F470124FF0020413F4FB
:102FC000803F04EB924202D04B689B0301D52D4B0E
:102FD00000E02A4B5A43CAE7234A0029516901D02D
:102FE000014300E08143516170471F4A0029916904
:102FF00001D0014300E08143916170471A4A0029E2
:10300000D16901D0014300E08143D1617047164A84
:103010000029D16801D0014300E08143D1607047AD
:10302000114A0029116901D0014300E08143116177
:10303000704711494039086070470E49C8647047AD
:103040000949C87170470848416A41F0807141627E
:103050007047054A0146002092680A4200D00120CC
:103060007047014988727047001002400000FFF865
:10307000FFFFF6FE000042428004424200127A0046
:103080004000002000093D00F94910B5884202D1F6
:103090000121C41486E0B0F1804F09D0F54988427F
:1030A0000DD101210220FFF7BBFF0021022064E0C7
:1030B00001210846FFF7B4FF002101205DE0EE4941
:1030C000884206D101210420FFF7AAFF0021042035
:1030D00053E0EA49884206D101210820FFF7A0FF0A
:1030E0000021082049E0E649884206D1012110204C
:1030F000FFF796FF002110203FE0E249884206D109
:1031000001212020FFF78CFF0021202035E0DE493F
:10311000884202D10121441444E0DC49884202D1B2
:103120000121CC043EE0DA49884202D101210C059C
:1031300038E0D849884202D101214C0532E0D64915
:10314000884206D101214020FFF76AFF002140207C
:1031500013E0D249884206D101218020FFF760FFA9
:103160000021802009E0CE4988420AD1841501213E
:103170002046FFF755FF00212046BDE81040FFF72D
:103180004FBFC849884202D101210C040AE0C64958
:10319000884202D101214C0404E0C44988420AD18A
:1031A00001218C042046FFF732FF2046BDE8104085
:1031B0000021FFF72CBF10BD30B50288AC4BB24CDC
:1031C00098420DD0A0420BD0B0F1804F08D0A94D4D
:1031D000A84205D0A84DA84202D0A84DA84203D1CC
:1031E00022F070054A882A43A54DA84206D0A54D75
:1031F000A84203D022F44075CA882A4302808A88F4
:1032000082850A88028598420AD0A04208D0A54A41
:10321000904205D0A44A904202D0A44A904201D1E3
:10322000097A01860121818230BD30B5028C22F0FD
:1032300001020284028C8388048B22F0020224F0B3
:1032400073050C882C430D8915434A882A43884D01
:10325000A8420BD08C4DA84208D0924DA84205D070
:10326000914DA84202D0914DA8420DD122F00805FF
:103270004A8923F440732A4322F004058A882A43AA
:103280008D891D43CB892B4383800483C988818624
:10329000028430BD70B5028C22F010020284028CD0
:1032A0008488038B0D8823F4E6464FF6FF7303EA08
:1032B000052535430E8922F0200203EA061616433F
:1032C0004A8803EA02123243694EB04202D06E4E7F
:1032D000B04215D122F080064A8924F4406403EA02
:1032E0000212324322F040068A8803EA0212324375
:1032F0008E8903EA86062643CC8903EA8404344394
:1033000084800583C9880187028470BD70B5028CF2
:1033100022F480720284028C8488838B0D8823F0CF
:1033200073031D4322F400730E894FF6FF7202EA05
:1033300006261E434B8802EA032333434C4EB04219
:1033400002D0514EB04215D123F400664B8924F4CB
:10335000405402EA0323334323F480668B8802EA55
:10336000032333438E8902EA06162643CC8902EAF8
:103370000414344384808583C9888187038470BDA5
:1033800070B5028C22F480520284048C8288838B74
:103390000D8823F4E6464FF6FF7303EA052535430F
:1033A00024F400560C8903EA043434434E8803EABB
:1033B000063626432E4CA04202D0334CA04205D103
:1033C00022F480448A8903EA821222438280858320
:1033D000C988A0F84010068470BD828B22F4406238
:1033E0008283828B4FF6FF7303EA01210A438283B3
:1033F0007047828B22F00C028283828B0A43828385
:103400007047028B22F440620283028B4FF6FF73F7
:1034100003EA01210A4302837047F0B5048C24F0CB
:1034200010040484078B048C4FF6FF7527F4734750
:1034300005EA03333B4305EA02221A430C4B05EA33
:10344000011698420ED0104B98420BD0B0F1804F2D
:1034500008D0084B984205D0074B984202D0074B42
:10346000984225D124F02001314341F0100124E09D
:10347000002C01400004004000080040000C004007
:10348000001000400014004000340140004C014096
:10349000005001400054014000180040001C004052
:1034A000002000400040014000440140004801402D
:1034B00024F0A0030B4343F0100102830184F0BD0C
:1034C000028B22F00C020283028B0A4302837047B4
:1034D00070B5048C24F001040484058B048C4FF631
:1034E000FF7606EA0313134325F0F305F94A2B434D
:1034F00090420ED0F84A90420BD0B0F1804F08D0E5
:10350000F64A904205D0F64A904202D0F54A9042DF
:1035100002D124F0020201E024F00A020A4342F040
:1035200001010383018470BD2DE9F05F0D4604465F
:103530000888E84FDFF8A0C3DFF8A0834988AA888D
:103540002B894FF0804960B3042832D04FF6FF7EBC
:10355000082836D0208C9B4620F480502084A38BF2
:10356000268C704600EA022223F473431A4300EAD1
:103570000B3010430EEA013EBC420BD0644509D02B
:103580004C4507D0444505D0D54A944202D0D54B8E
:103590009C4245D126F4005141EA0E0141F480518C
:1035A00043E02046FFF794FFE9882046BDE8F05F3E
:1035B00086E72046FFF731FFE9882046BDE8F05F47
:1035C0001FE7208C20F480702084B4F81CA0208C8D
:1035D0000EEA031313432AF0F30A0EEA012B43EA1F
:1035E0000A03BC420BD0644509D04C4507D0444582
:1035F00005D0BB4A944202D0BA4A944204D120F486
:10360000007040EA0B0002E020F42060084340F420
:103610008070A3832084E9882046BDE8F05FE8E657
:1036200026F402420A4342F48051A08320462184BA
:10363000E988BDE8F05FD0E62DE9F0410C460026B0
:1036400049880746012501B90226A288012A00D12E
:103650000225208823890028384610D0FFF7DDFE98
:10366000E1883846FFF7CDFE23892A4631463846A1
:10367000FFF72EFFE1883846BDE8F04120E7FFF76D
:1036800027FFE1883846FFF71BFF23892A4631468A
:103690003846FFF7C2FEE1883846BDE8F041B0E6A3
:1036A00010B50A884B88CC881A438B8823431A4369
:1036B0000B891A434B8989891A430A43A0F844208D
:1036C00010BD4FF6FF71818000210180C1804180D3
:1036D000017270470021018041808180C180018199
:1036E00041818181C1817047002101804180012297
:1036F0008280C180018170470021018041808180EA
:10370000C18001814181818170470029018802D0F7
:1037100041F0010101E021F0010101807047002921
:1037200030F8441F02D041F4004101E0C1F30E0122
:1037300001807047002A828901D00A4300E08A4351
:1037400082817047818270471143A0F8481070470A
:10375000002A828901D00A4300E08A4382817047AF
:10376000018921F0070101817047028922F070026E
:103770000A430281704700B50346FFF7F6FF188938
:1037800040F00700188100BD70B516460D4660294F
:1037900004464FF0010231460AD0FFF799FE294650
:1037A0002046FFF7E2FF208940F00700208170BD2E
:1037B000FFF733FEF3E730B504894FF6FF7505EAEE
:1037C00003231343E4B20B432343038130BD10B5FD
:1037D0000446FFF7F0FF208940F07700208110BDFC
:1037E00010B50446FFF7E7FF208940F480402081B0
:1037F00010BD018582827047028822F070020A4360
:103800000280704770B50589048B068C25F007058A
:103810000D434FF6FC410C4040F201110C434FF6B2
:10382000FF7101EA031126F022061143314305819D
:103830000483018470BD028B22F070020A4302836C
:103840007047028B4FF6FF7322F4E04203EA012136
:10385000114301837047828B22F070020A438283F6
:103860007047828B4FF6FF7322F4E04203EA012196
:103870001143818370470029018802D041F0800103
:1038800001E021F08001018070470029818802D089
:1038900041F0040101E021F004018180704700291A
:1038A000818802D041F0080101E021F00801818007
:1038B00070470029818802D041F0010101E021F028
:1038C000010181807047028B22F008020A430283C3
:1038D00070470000002C014000340140000400400B
:1038E00000080040000C0040028B4FF6FF7322F4EA
:1038F000006203EA012111430183E9E7828B22F090
:1039000008020A438283E3E7828B4FF6FF7322F4B7
:10391000006203EA012111438183D9E7028B22F07F
:1039200004020A430283D3E7028B4FF6FF7322F4AB
:10393000806203EA012111430183C9E7828B22F0EF
:1039400004020A438283C3E7828B4FF6FF7322F49B
:10395000806203EA012111438183B9E7028B22F0DF
:1039600080020A430283B3E7028B4FF6FF73C2F370
:103970000E0203EA012111430183A9E7828B22F0A1
:1039800080020A438283A3E7828B4FF6FF73C2F360
:103990000E0203EA01211143818399E7028C22F090
:1039A00002020A43028493E7028C22F008020A43CF
:1039B00002848DE7028C4FF6FF7322F0200203EAA7
:1039C00001111143018483E7028C4FF6FF7322F04B
:1039D000800203EA01111143018479E7028C4FF65A
:1039E000FF7322F4007203EA0121114301846FE79F
:1039F000028C4FF6FF7322F4006203EA01211143A7
:103A0000018465E7028C4FF6FF7322F4005203EA4B
:103A10000131114301845BE710B50123048C8B4015
:103A20009C430484038C8A401343038410BD10B567
:103A30000423048C8B409C430484038C8A401343EE
:103A4000038410BD30B50124058C00F118038C40AF
:103A5000A543058489B108290FD0091FC1F34E0081
:103A60001844016821F4E041016001684FF6FF73DA
:103A700003EA02221143016030BD03EB51000168EB
:103A800021F0700101600168F4E70029018802D08B
:103A900041F0020101E021F00201018018E7002954
:103AA000018802D041F0040101E021F0040101800D
:103AB0000EE70029818802D041F0800101E021F069
:103AC0008001818004E7028822F0080202800288D7
:103AD0000A430280FCE6828822F07002828082889B
:103AE0000A438280F4E6028922F0070202810289F9
:103AF0000A430281ECE6028922F0800202810289F7
:103B00000A430281E4E68184E2E68185E0E681867B
:103B1000DEE60187DCE68187DAE6A0F84010D7E62A
:103B2000028822F44072028002880A430280CFE6B3
:103B3000808ECDE6008FCBE6808FC9E6B0F84000DE
:103B4000C6E6808CC4E6008DC2E602460020128ADA
:103B50000A4200D00120BBE6C9430182B8E6024612
:103B60000020138A92890B4202EA010202D0002A45
:103B700000D00120ACE6C9430182A9E6C44910B5D2
:103B800088420AD101218C032046FFF740FA2046E3
:103B9000BDE810400021FFF73ABABE49884202D181
:103BA00001214C0410E0BC49884202D101218C045F
:103BB0000AE0BA49884202D10121CC0404E0B849A4
:103BC00088420AD101210C052046FFF729FA204638
:103BD000BDE810400021FFF723BA10BD30B5044600
:103BE000008A85B00D464CF6FF710840E988014314
:103BF0002182A1894EF6F3100140A8882A8910433A
:103C00006A890A431043A081A08A4FF6FF41084009
:103C1000A9890143A1826846FFF79EF99C48844226
:103C200001D1039800E00298A189090400EBC001CA
:103C300001EB0010296801D5490000E08900B0FBC4
:103C4000F1F06422B0FBF2F109010B096FF01805E5
:103C50006B4300EB8300A3891D044FF0320306D5AC
:103C600003EBC000B0FBF2F000F0070005E003EB4F
:103C70000010B0FBF2F000F00F000843208105B007
:103C800030BD4FF41651016000218180C180018157
:103C90000C2242818181704710B5038A4FF2FF02E6
:103CA00013400A884C8822438C88C9880C432243DD
:103CB0001A43028210BD0021018041808180C180B1
:103CC00070470029818902D041F4005101E021F4BC
:103CD00000518181704710B5C1F3421301F01F04F8
:103CE0000121A140012B07D0022B07D01430002A5C
:103CF000026805D00A4304E00C30F8E71030F6E71C
:103D00008A43026010BD002A828A01D00A4300E083
:103D10008A4382827047028A22F00F020282028A5C
:103D20000A4302827047828922F40062828182897A
:103D30000A43828170470029818902D041F0020143
:103D400001E021F0020181817047028A22F0200205
:103D50000282028A0A43028270470029018A02D045
:103D600041F4804101E021F4804101827047C1F3B8
:103D70000801818070478088C0F3080070478189FE
:103D800041F0010181817047028BD2B20283028B24
:103D900042EA012101837047028B02F47F420283D1
:103DA000028B0A43028370470029818A02D041F0C6
:103DB000200101E021F02001818270470029818AE1
:103DC00002D041F0100101E021F010018182704722
:103DD0000029818A02D041F0080101E021F00801A8
:103DE000818270470029818902D041F4004101E0BD
:103DF000C1F30E01818170470029818A02D041F40C
:103E0000006101E021F4006181827047828A22F022
:103E100004028282828A0A43828270470029818A50
:103E200002D041F0020101E021F0020181827047DD
:103E30000246002012880A4200D001207047C94380
:103E40000180704730B501F01F0201240025C1F345
:103E5000421304FA02F2012B0FD0022B0FD0838AF7
:103E60004FEA11210088134204FA01F400EA040029
:103E700001D000B10125284630BD8389F0E7038ACF
:103E8000EEE70A0A01219140C94301807047000012
:103E9000003801400044004000480040004C004011
:103EA000005000400648804706480047FEE7FEE70E
:103EB000FEE7FEE7FEE7FEE7FEE7FEE7FEE7FEE7DA
:103EC000693F0008310100080CB500214B48019101
:103ED0000091026842F4803202604FF4A0630268ED
:103EE00002F400320092019A521C0192009A12B917
:103EF000019A9A42F3D10268920333D501210091CD
:103F00003F490A6842F010020A600A6822F0030280
:103F10000A600A6842F002020A6041684160416832
:103F20004160416841F480614160416821F47C1145
:103F30004160416841F4E8114160016841F08071DD
:103F4000016001688901FCD5416821F003014160ED
:103F5000416841F0020141604168C1F381010229D9
:103F6000FAD10CBD00910CBD244810B5016841F098
:103F7000010101604168234A114041600168224A01
:103F800011400160016821F480210160416821F441
:103F9000FE0141604FF41F018160FFF795FF1B494F
:103FA0004FF00060086010BD144910B54868184A09
:103FB00010F00C03174803D0042B01D0082B0AD0B3
:103FC00002604968134AC1F30311121D515C026873
:103FD000CA40026010BD4A684B6802F470124FF08C
:103FE000020413F4803F04EB924202D04B689B031F
:103FF00001D5094B00E0064B5A43E1E700100240AF
:10400000002002400000FFF8FFFFF6FE08ED00E090
:1040100000127A005000002000093D00A0F141018B
:10402000192900D82030704740EA01039B0703D0CC
:1040300009E008C9121F08C0042AFAD203E011F8E7
:10404000013B00F8013B521EF9D27047D2B201E0A9
:1040500000F8012B491EFBD270470022F6E710B58D
:1040600013460A4604461946FFF7F0FF204610BDE6
:10407000421C10F8011B0029FBD1801A704730B593
:1040800005460020034600E05B1C934205D2EC5C31
:10409000C85C201A01D1002CF6D130BD0FB400B598
:1040A0008DB010A909900B9000914FF0FF300A904D
:1040B00000200C9005480690054807906A4609A81C
:1040C0000F9900F055FC0DB05DF814FB8D49000808
:1040D000AB4900082DE9FF5F1D464FF0FF3BD5E9D6
:1040E000014691465F464FF00008A9697F1C019880
:1040F0008847296A824688470028F6D1BAF1FF3FEF
:104100000CD024F4C064002E19DD600614D5BAF179
:104110002B0F09D0BAF12D0F0ED103E0584604B091
:10412000BDE8F09F44F48064A9697F1C019888472A
:10413000761E8246002E02DDBAF1300F03D0B9F1AF
:10414000000F26D032E0A969761E44F400747F1C6B
:10415000019888478246002E05DDBAF1780F06D017
:10416000BAF1580F03D0B9F1000F10D01EE0B9F129
:10417000000F02D0B9F1100F18D1A969761E24F4EE
:1041800000747F1C019888478246102002E00820B6
:1041900000E00A20814609E008FB0908A969761EAB
:1041A00044F400747F1C019888478246002E05DD88
:1041B0004946504600F0C7FB0028EDDAE96901984E
:1041C0008847A00502D46FF00100A8E7E00725D1D9
:1041D000600613D5600502D5C8F1000000E0404636
:1041E00029680A1D2A600968220501D5087015E0B2
:1041F000220701D5088011E008600FE02868011D42
:1042000029600068210502D580F8008006E02107BA
:1042100002D5A0F8008001E0C0F8008038467EE7B3
:104220002DE9FF5FD2E901A74FF000089169994697
:104230001446DDF838B0464601988847054659EAE5
:104240000B0005D009E0A169761C01988847054656
:10425000216A284688470028F5D1681C03D05FEA08
:10426000CA7005D015E04FF0FF3004B0BDE8F09FF4
:104270002068011D2160D0F800800AE05FEACA7062
:1042800001D108F8015BA169761C7F1E019888475F
:104290000546002F1ADD681C18D0B9F1000F0DD0AB
:1042A000E81705EBD060421120F01F0059F82210EA
:1042B0002A1A012090400142E0D107E0BBF1000F33
:1042C000DCD1216A284688470028D7D0E1690198C7
:1042D0008847BBF1000F07D1002E05DD5FEACA70E9
:1042E00002D1002188F80010A068B84203DDBBF1BC
:1042F000000F03D017B16FF00100B6E73046B4E706
:104300002DE9FF4F087883B09946FF2805D0491C56
:104310002D2804D00024002008E000200BE0012418
:10432000F9E700EB800003EB4000491C0B78FF2B02
:10433000F7D104B1404200230293147819461D4678
:104340002D2C01D02B2C04D1521C2D2C13D0002449
:104350000294AA461478FF2C0FD00A25A3FB0578F7
:1043600001FB05814FF0000C03FB0C11521CE319FB
:104370004AEB0101EEE70124EAE7814453EA010038
:1043800002D019F5C87F06DA03980021C0E90011B0
:1043900007B0BDE8F08F0025AE4E2F46DFF8B8829B
:1043A000184600F04EFCCDE90001B9F1000002DA38
:1043B000C9F1000400E004460023A74A1AEB030BEE
:1043C00042EB045A12E0E00707D02A46334638464B
:1043D000414600F051F9074688462A4633461046C2
:1043E000194600F049F905460E466410002CEAD142
:1043F000DDE90001B9F1000F5A46534606DA00F034
:10440000ADF93A46434600F0A9F905E000F034F969
:104410003A46434600F030F9029A0AB181F0004171
:10442000039AC2E90001B3E72DE9FF4F1F468DB0A3
:10443000D7E901464FF0FF382E2045464FF00009DE
:104440000B90B9696D1C0E988847396A8246884777
:104450000028F6D1BAF1FF3F0AD024F4D064002E30
:1044600011DDBAF12B0F08D0BAF12D0F0BD102E0FC
:10447000404611B08DE744F48064B9696D1C0E9814
:1044800088478246761E6946600501D52D2000E0EA
:104490002B208DF8000001F1010B0DF1200809E03F
:1044A000B9696D1C0E98884782460F9844F40074D1
:1044B000761E0560002E02DDBAF1300FF0D00B99A8
:1044C0008A453ED144F0800406E00F99681CA9F1AA
:1044D000010944F400740860B9696D1C761E0E98D9
:1044E000884782463028F0D02BE00B998A4505D1C9
:1044F000200603D444F08004761E18E0504600F0F5
:10450000CBFE08B30DF11301761E44F400748B4505
:1045100008D2AAF130000BF8010B200607D5A9F14B
:10452000010003E0200602D409F101008146A00544
:1045300002D50F99681C0860B9696D1C0E988847F0
:104540008246002ED1DC53E0002E51DDBAF1650F1A
:1045500002D0BAF1450F4BD1A00549D5B9696D1C00
:1045600024F44074761E0E9888478246002E0CDD97
:104570002B2804D0BAF12D0F07D144F48074B96907
:104580006D1C0E9888478246761EE00501D52D21C8
:1045900000E02B2108F8011BCDF82C8021E00DF163
:1045A0002901761E44F4007488450CD2AAF130002B
:1045B00010F0FF0088F8000002D10B99884509D956
:1045C00008F1010806E0E00501D5244801E042F2C7
:1045D0000F708146B9696D1C0E98884782460F9806
:1045E0000560002E04DD504600F056FE0028D6D1AE
:1045F000F9690E988847FF208BF8000088F80000C2
:104600000020069007904B466A4608A906A8FFF7C7
:1046100077FEA00502D46FF001002AE714F0240F02
:104620000AD0E00714D1DDE906123868031D3B60AB
:104630000068C0E900120BE0DDE9060100F015F9A1
:104640000146E00704D13868021D3A600068016045
:1046500028460EE7000014400000F03FF1D8FFFFAD
:10466000420005D0C0F3C7525242914201DC002003
:10467000704700EBC15070472DE9FE4F81EA0304FB
:1046800004F0004421F0004100944FF0000B23F0AF
:10469000004350EA01045ED052EA03045BD0C3F346
:1046A0000A54C1F30A552C44A4F2F3340194A0FB3C
:1046B0000254C1F3130141F48011C3F3130343F413
:1046C000801301FB024400FB034E840A970A44EA6C
:1046D000815447EA8357A4FB076802958D0A05FBBE
:1046E00007854FEA932C04FB0C542705029D4FEAE3
:1046F000065847EA1637B5EB08056EEB070C870E30
:10470000920E47EA811742EA8312A7FB0201B6EB39
:104710000B0164EB00042B0D43EA0C335E1844EBF1
:104720001C50DA465146E7FB0201C5F313044FEA79
:104730000B3343EA14534FEA0432019C43EA060365
:10474000A4F10C040294009CCDE900B400F084F9BB
:1047500003B0BDE8F08F00200146F9E72DE9F04DE8
:1047600081EA030404F0004B21F0004514464FF0A9
:10477000000A23F0004150EA050220D054EA010269
:104780001DD0C5F30A570246C5F31303C1F3130046
:10479000C1F30A5640F4801543F48013A7EB0608D2
:1047A000101BD64608F2FD3873EB050002D308F162
:1047B000010801E092185B41B8F1000F03DA002014
:1047C0000146BDE8F08D00204FF480110646844676
:1047D0000EE0171B73EB050705D3121B63EB0503F4
:1047E00006434CEA010C49084FEA300092185B413D
:1047F00050EA0107EDD152EA030012D082EA040028
:1048000083EA0501084305D0101BAB4106D2012203
:10481000002306E000224FF0004302E06FF00102A7
:1048200053101AEB06004CEB085110EB0A0041EB59
:104830000B01BDE8F04D00F000B9962300221146AF
:1048400000F0CDB800F0004230F000400AD0C10DB9
:1048500001F56071C0F3160042EA0151C208400739
:104860001143704700200146704701F0004330B407
:1048700021F0004150EA010206D00A0DA2F5607253
:10488000C1F31301002A02DC30BC00207047440F42
:1048900044EAC104C100E01830BC00EBC25000F093
:1048A00095B80000002801DBC0F10040002901DBC1
:1048B000C1F100418142704730B50B4601460020EE
:1048C0002022012409E021FA02F59D4205D303FAD2
:1048D00002F5491B04FA02F52844151EA2F1010253
:1048E000F1DC30BD2DE9F05F0546002092469B4685
:1048F00088460646814640241BE0284641464746F6
:10490000224600F0FCF953465A46C01A914110D392
:1049100011461846224600F0E3F92D1A67EB01080C
:104920004F4622460120002100F0DAF917EB00097A
:104930004E41201EA4F10104DFDC484631462A46E0
:104940004346BDE8F09F3A2800D2303820F02002DC
:10495000412A01D3A2F13700884201D34FF0FF3042
:1049600070470000026811441378016018467047D0
:10497000D16004495161044911620021116111465D
:1049800000F0E4B965490008434D0008426842B1AF
:10499000016811F8013B23B1521EC0E9001218460C
:1049A00070470121C160881E704742685AB1C368D0
:1049B000016843B983688B4205D0491E521CC0E987
:1049C0000012002070474FF0FF3070470029A8BF49
:1049D0007047401C490008BF20F00100704710B428
:1049E000B0FA80FC00FA0CF050EA010404BF10BCDD
:1049F000704749B1CCF1200421FA04F411FA0CF10A
:104A000018BF012121430843A3EB0C01CB1D4FEA42
:104A100000614FEA102042BF002010BC704700EB3D
:104A2000C35010440029A4BF10BC7047401C49006B
:104A300008BF20F0010010BC704710B5141E73F1C0
:104A4000000408DA401C41F1000192185B411A434E
:104A500001D120F0010010BD2DE9F04D92469B469A
:104A600011B1B1FA81F202E0B0FA80F22032904640
:104A700000F036F904460F4640EA0A0041EA0B010D
:104A800053465A46084313D0114653EA010019D041
:104A9000C8F14002504600F032F905460E46504635
:104AA0005946424600F01CF9084305D0012004E0B5
:104AB00020463946BDE8F08D0020054346EAE07601
:104AC0002C4337430A986305E40AA0EB0800002250
:104AD000FD0A44EA47540A3002D500200146E9E7BE
:104AE000010510196941DDE9084500196941BDE872
:104AF000F04DA2E72DE9FE4F804681EA0300C00F8A
:104B00000C46009021F0004123F00045B8EB020074
:104B1000A94105D24046214690461C460B46024616
:104B200023F00040104347D0270DC7F30A00C3F31A
:104B30000A510290401A019040286BDAC3F3130027
:104B400040F4801B0098924620B10023D2EB030A68
:104B500063EB0B0B01985946C0F14002504600F040
:104B6000BFF806460D4650465946019A00F0D7F860
:104B700010EB08006141002487EA115284EAE773D0
:104B80001A4340D0009A62B3019A012A4FEA0752B1
:104B900015DC001B61EB02014FF0004202EA0752F4
:104BA000CDE90042001C41F5801132462B46FFF74B
:104BB00053FF03B0BDE8F08F40462146F9E7001BE4
:104BC00061EB0201001C41F5801300185B412018C5
:104BD000A2F5001747EB030140EAD570B6196D4105
:104BE00011E06D084FEA360645EAC0754FEA0752F4
:104BF000001B61EB0201001C41F5801149084FEADE
:104C000030000019514132462B4603B0BDE8F04F49
:104C1000FFF713BF0098012240000023D0EB0202EF
:104C200063EBE073009821464FEAE074B8EB0000B4
:104C300061EB0401E9E783F000435BE781F00041A9
:104C400058E70EB540F2334202920022CDE900222D
:104C50001346FFF701FF03B000BDC1F30A52C1F3D1
:104C6000130140F2FF3341F480119A4202DA00202E
:104C70000146704740F233439A42A2F2334202DCCB
:104C8000524200F03CB800F02BB8000030B5041ED2
:104C900071F1000404DB4FF00044404264EB010179
:104CA000141E73F1000405DB1C464FF00043524212
:104CB00063EB0403994208BF904230BD064C074D98
:104CC00006E0E06840F0010394E8070098471034DC
:104CD000AC42F6D3FBF730FA885B0008A85B00080B
:104CE000202A04DB203A00FA02F1002070479140AC
:104CF000C2F1200320FA03F3194390407047202AA1
:104D000004DB203A21FA02F00021704721FA02F375
:104D1000D040C2F120029140084319467047202A32
:104D200006DBCB17203A41FA02F043EAE07306E0D3
:104D300041FA02F3D040C2F12002914008431946E3
:104D40007047C0B24FF4F05100F096B92DE9F34F1F
:104D50008BB04FF0000801F10C000C464FF0010B36
:104D600046460DF1080A01906269012101989047B9
:104D7000051E2DD0252D2CD0216A8847C0B162692F
:104D8000012101989047216A88470028F7D1411EE8
:104D900062690198904700E0761CA1690B988847EA
:104DA000216A88470028F7D1E1690B988847DBE73B
:104DB000A1690B9888470746A84201D1761CD3E722
:104DC000E1690B9888477F1C02D1B8F1000F6FD0C2
:104DD00046E1002762693D463946019890472A28F6
:104DE00004D162690121019890470125DFF884927E
:104DF0006269012101989047A0F130010A290AD285
:104E00004F45E5DC07EB870100EB4107303FDFD47E
:104E100045F01005ECE7E90601D46FF000476C2877
:104E20000AD04C2814D0682815D06A280DD07428D0
:104E30001CD07A281AD01DE06269012101989047A0
:104E40006C2802D045F0040514E045F002050DE0A1
:104E500045F020050AE06269012101989047682821
:104E600002D045F0080505E045F4006562690121BE
:104E700001989047C4E9015765283DD019DC5828AE
:104E80007AD00CDC452837D004DC252826D04128F0
:104E900031D131E046282FD047282CD12CE05B2897
:104EA00077D0612828D063287CD0642823D15AE0A9
:104EB000D0E06F2848D008DC66281DD067281BD0BA
:104EC000692821D06E2816D127E0702845D0732894
:104ED00068D0752847D078280DD14DE0A1690B988E
:104EE0008847054625283FF469AFE1690B98884754
:104EF0006D1C3FF46AAFB3E023466A466FF00100D1
:104F00000B99FFF791FA9EE045F040006060A8071A
:104F100023464FF0000236D43EE0E8077FF447AF67
:104F20002068011D21600068290501D506701BE776
:104F3000290701D5068017E7A90703D5F117C0E9AE
:104F4000006111E706600FE745F040006060A807C8
:104F500023464FF0080216D41EE040F60E0125EA63
:104F60000100606016E045F040006060A80723463D
:104F70004FF00A0207D40FE045F040006060A80738
:104F800008D5234610226FF001000B99AFF3008083
:104F900059E007E0234610226FF001000B99FFF75C
:104FA00099F850E04FF000094F464B46632802D075
:104FB0005B2806D040E0E80601D40120A06001276C
:104FC0003AE062690121019890475E2805D14FF0CF
:104FD00001096269494601989047216939B9002160
:104FE0000A46534643F82120491C0829FADBB0B38E
:104FF000216969B9C11700EBD16253110AEB830132
:1050000022F01F02821A01200B68904003430B60BC
:1050100062690121019890475D28E8D1B9F1000F3C
:1050200009D00020514651F82020D24341F82020D9
:10503000401C0828F7DB02AB224600976FF0010006
:105040000B99FFF7EDF800280CDA401C08D1BBF1F2
:10505000000F05D04FF0FF300DB0BDE8F08FFFE737
:105060004046F9E7E90701D108F1010806444FF08D
:10507000000B79E6CCCCCC0C7F2801D9002208E0CB
:10508000064A02EB5002C007127800D1120902F062
:105090000F0201209040084070470000B45A0008F9
:1050A0000FB4084B10B504A902AA039800F0FCF84D
:1050B000044602A9002000F099FC204610BC5DF8CF
:1050C00014FB0000ED5900087CB5044600201D4685
:1050D000164600290BD0491ECDE90041044B6A4613
:1050E0002946304600F0E0F8009A002111707CBD9E
:1050F000D759000802E008C8121F08C1002AFAD1D7
:1051000070477047002001E001C1121F002AFBD147
:10511000704700002DE9FF5F82B00021DDE9043017
:10512000020DDDF840B0034318D044F61050A2F24F
:10513000FF3242431514119801281FD0A5EB0B0034
:10514000401C5FEA000A4FF000064E4FDFF838912E
:10515000B046504615D5CAF1000413E01198012459
:105160004AA3012801D16FEA0B010298119AC0E904
:105170000031C0E9024206B0BDE8F09FCBF100006B
:10518000DFE704460021404A491842EB0450CDE9CC
:10519000001012E0E00707D032463B464046494641
:1051A000FFF76AFA8046894632463B461046194662
:1051B000FFF762FA06460F466410002CEAD1DDE9DB
:1051C0000401DDE90023BAF1000F06DAFFF754FA13
:1051D00042464B46FFF750FA05E0FFF7BFFA42465A
:1051E0004B46FFF7BBFA04460E460022284BFFF75A
:1051F0004DFD03D84FF0FF30014607E00022254B5C
:1052000020463146FFF776FCFFF727FD102409E022
:10521000002C0ADB0A220023FFF764FB039B3032D9
:105220001A55641E50EA0102F2D1641C039AC4F1BB
:1052300011031444119A012A03D0012208430DD10D
:105240000AE0084304D000204FF0110B119072E7E0
:10525000A3EB0B056D1E0DE05B4504DD4FF0000276
:1052600005F1010504E003DA4FF00002A5F10105A4
:10527000002AECD002981199C0E90231C0E900453A
:1052800079E70000000014400000F03F300000000B
:105290000000F0430000E03F30380A2801D201202E
:1052A00070470020704700002DE9FF4F95B09B46E6
:1052B0008946064600250FE2252877D10024274697
:1052C000F84A0121059400E0044316F8013F203B11
:1052D00001FA03F01042F7D130782A2811D06FF08C
:1052E0002F033078A0F13002092A16D8059A44F02D
:1052F000020402EB820203EB42021044761C05908A
:10530000EFE759F8042B0592002A03DA504244F4DF
:105310000054059044F00204761C30782E2816D1F3
:1053200016F8010F44F004042A280DD06FF02F0264
:105330003078A0F13003092B09D807EB870302EB83
:105340004303C718761CF3E759F8047B761C3078C2
:105350006C280FD006DC4C2817D068280DD06A289E
:1053600014D104E0742810D07A280FD10DE044F451
:1053700000140AE044F4801401E044F4401472780C
:10538000824202D104F58014761C761C307866289F
:105390000BD013DC582877D009DC002875D04528BD
:1053A000F6D04628F4D047281AD19DE118E06328AA
:1053B00035D0642879D0652812D195E1702873D052
:1053C00008DC6728F1D069286FD06E280DD06F28CF
:1053D00006D1B5E073282CD0752875D0782874D004
:1053E0005A46179990476D1C75E1C4F30250022884
:1053F00009D003280DD0D9F8001004280DD00D6075
:1054000009F1040967E1D9F80010EA17C1E900526F
:10541000F6E7D9F800100D80F2E70D70F0E719F803
:10542000041B8DF8001000208DF80100EA460120D1
:1054300003E059F804AB4FF0FF3061074FF0000173
:1054400002D40DE008F101018846B9420FDA804527
:10545000F8DB1AF808100029F4D108E008F101017E
:1054600088468142FADB1AF808100029F6D105981F
:105470005B46A0EB080721463846179A00F094FADD
:10548000284400EB080507E04DE029E10DE01AF89B
:10549000010B5A4617999047B8F10108F7D25B46BD
:1054A00021463846179A13E142E00A220092C4F3DB
:1054B00002524FF0000A022A08D059F804CB032AFE
:1054C0004FEAEC710AD00DE029E02AE009F107016A
:1054D00021F00702F2E802C1914609E00FFA8CFCC4
:1054E0004FEAEC71042A03D14FFA8CFC4FEAEC71BD
:1054F000002907DA0A460021DCF1000C61EB020109
:105500002D2202E0220504D52B228DF80420012251
:1055100003E0E20701D02022F7E7904659E00A2194
:1055200002E010220DE010214FF0000A00910BE084
:1055300010224FF0000A44F004040827009203E010
:1055400008224FF0000A0092C4F30252022A05D04A
:1055500059F804CB0021032A08D009E009F107011A
:1055600021F00702F2E802C1914605E01FFA8CFC27
:10557000042A01D10CF0FF0C4FF00008220728D5B7
:10558000702806D0009B83F0100353EA0A0305D06D
:105590000EE040228DF80420012208E05CEA0102BE
:1055A00006D030228DF804208DF8050002229046A6
:1055B000009B83F0080353EA0A030AD15CEA010264
:1055C00001D1620705D530228DF804204FF0010883
:1055D0007F1E582804D034A003900EA802900DE03E
:1055E00036A0F9E753466046009AFFF77BF98446F8
:1055F0000398825C0298401E029002705CEA0100EF
:10560000F0D1029806A9081A00F1200A600702D515
:1056100024F4803400E00127574502DDA7EB0A009F
:1056200000E0002000EB0A01009005984144401A78
:105630000590E00306D45B462146179A059800F0D2
:10564000B3F90544002706E001A85A46C05D179942
:1056500090476D1C7F1C4745F6DBE0030CD55B468D
:105660002146179A059800F09FF9054404E0302080
:105670005A46179990476D1C0099481E00900029C2
:10568000F5DC08E0029802995A460078491C02911C
:10569000179990476D1CBAF10001AAF1010AF1DCDB
:1056A00065E10000092801003031323334353637E6
:1056B000383961626364656600000000303132335E
:1056C00034353637383941424344454600000000FE
:1056D00000F058F90544761C307800287FF4ECADD2
:1056E00019B02846BDE8F08F620700D4062709F1FB
:1056F000070222F0070CFCE80223E14603F0004811
:105700005FEA080C02D00FF2702C0DE05FEA045C37
:1057100002D50FF2682C07E05FEAC47C02D00FF2DA
:10572000602C01E0AFF2700C4FF0FF3823F0004323
:10573000CDF850C065280CD006DC452809D0462895
:105740001DD047283DD13DE0662818D067287ED17E
:1057500038E00021112F01DB112000E0781CCDE999
:10576000000106A90EA8FFF7D5FCDDE90F010E9A8E
:1057700003910021009207F1010A04914DE04FF0DE
:1057800000400097CDE9011006A90EA8FFF7C2FC62
:10579000DDE90F0203920E9B11990022DDF80CA0A7
:1057A0000093049211B9791C00EB010AB7EB0A00CF
:1057B00004D4C0F1FF3007F1010A0490AAEB0700FE
:1057C000019044E0012F00DA01270021112F01DDB3
:1057D000112000E03846CDE9000106A90EA8FFF728
:1057E00099FCDDE90F010E9A0391002104910092CA
:1057F000BA4621070CD40399514500DA8A46BAF11A
:10580000010F05DD009AAAF10101515C302908D091
:10581000B84202DA10F1040F06DA0121CDE90110D5
:1058200015E0AAF10101E9E7002805DC049901442B
:105830000491AAEB000102E0411C514500DD8A46BB
:105840000499401A401C01904FF00040029020073C
:1058500004D40198504501DBCDF8048000208DF878
:105860004F0002980DF14F07B0F1004F25D02B20CB
:105870000E9002984FF0020800280CDA4042029085
:105880002D200E9007E00A210298FFF715F830311D
:10589000029007F8011DB8F10001A8F10108F2DC3F
:1058A00002980028EFD1791E0E980870307800F029
:1058B000200040F0450007F8020D12A8C01B00F1BF
:1058C00007081498007800B1012000EB0A01019844
:1058D00001EBE07105984144401A401E0590E00339
:1058E00006D45B462146179A059800F05DF80544FA
:1058F0001498007818B15A46179990476D1CE00328
:1059000024D55B462146179A059800F04DF80544CA
:105910001CE00498002807DBDDE90301884203DD71
:105920000098405C179901E0179930205A4690473B
:10593000049805F10105401C04900198401E019057
:1059400004D12E205A46179990476D1CBAF10001D8
:10595000AAF1010ADDDC05E017F8010B5A46179998
:1059600090476D1CB8F10001A8F10108F4DC5B461A
:105970002146179A0598ABE62D0000002B00000089
:10598000200000002DE9F041044600251E46174680
:10599000880404D405E039462020B0476D1C641EFD
:1059A000F9D52846BDE8F0812DE9F04104460025EF
:1059B0001E469046C80301D5302700E02027880402
:1059C00004D505E041463846B0476D1C641EF9D544
:1059D0002846BDE8F0814A68002A06D00A68531CB0
:1059E0000B6010704868401E486070470A68531C7E
:1059F0000B6010707047000010B5002821D0114BCB
:105A00000022001F196803E0814203D80A46496852
:105A10000029F9D152B11368841A9C4204D100685C
:105A200018441060104602E0506000E0186039B180
:105A300002680B1A934203D10B681A44026049684A
:105A4000416010BD64000020F0B50B30154D20F012
:105A500007010024144A0FE003688B420BD38B42EA
:105A600005D95E1A43184768C3E9006700E0436838
:105A7000136002C004E0021D10680028ECD120462B
:105A8000002802D1286808B10020F0BD064A074866
:105A90001060074A121A22F00702C0E90024012010
:105AA0002860D7E7680000206400002064780020A8
:105AB000607A0020DDDDDDDDDCBBBBDDDDDDDDDDD5
:105AC000DDDDDDDD98888888888888887777777736
:105AD0007788888885555556666666666666666602
